:020000040000FA
:10000000680400206D02000071020000730200000D
:100010007502000077020000790200000000000075
:100020000000000000000000000000007B02000053
:100030007D020000000000007F020000810200003D
:10004000830200008302000083020000830200009C
:10005000830200008302000083020000830200008C
:10006000830200008302000083020000830200007C
:10007000830200008302000083020000830200006C
:10008000830200008302000083020000830200005C
:10009000830200008302000083020000830200004C
:1000A000830200008302000083020000830200003C
:1000B000830200008302000083020000830200002C
:1000C000830200008302000083020000830200001C
:1000D000830200008302000083020000830200000C
:1000E00083020000830200008302000083020000FC
:1000F00083020000830200008302000083020000EC
:1001000083020000830200008302000083020000DB
:1001100083020000830200008302000083020000CB
:1001200083020000830200008302000083020000BB
:1001300083020000830200008302000083020000AB
:1001400000000000000000000000000000000000AF
:10015000830200008302000083020000830200008B
:10016000000000000000000000000000000000008F
:10017000000000000000000000000000000000007F
:10018000000000000000000000000000000000006F
:10019000000000000000000000000000000000005F
:1001A000000000000000000000000000000000004F
:1001B000830200008302000083020000830200002B
:1001C000830200008302000083020000830200001B
:1001D000830200008302000083020000830200000B
:1001E00083020000830200008302000083020000FB
:1001F00083020000830200008302000083020000EB
:10020000830200008302000083020000000000005F
:1002100083020000830200008302000083020000CA
:1002200083020000830200008302000083020000BA
:1002300083020000830200008302000083020000AA
:10024000830200008302000083020000830200009A
:10025000830200008302000083020000830200008A
:1002600083020000830200008302000000F00AB84D
:10027000FEE7FEE7FEE7FEE7FEE7FEE7FEE7FEE756
:10028000FEE7FEE700F002F800F042F814A696E858
:10029000000CB244B344DA4501D100F039F8BAE8B1
:1002A0000F000FA696E83000A5EB040504EB060747
:1002B000AAEB0704A7F101074FEA15154FEA34141A
:1002C000A4F10104AC4201D300F022F813F0010FB5
:1002D00018BFFB1A43F0010300F001F8DBE71847F1
:1002E000C4050000D405000070470000002300246E
:1002F00000250026103A28BF78C1FBD8520728BF36
:1003000030C148BF0B6070471FB51FBD10B510BD91
:1003100000F029F81146FFF7F7FF00F027FA00F088
:1003200047F803B4FFF7F2FF03BC00F04FF80000FA
:1003300072B6704762B67047EFF3108072B67047BE
:1003400080F31088704730BF704702480249014A65
:10035000024B7047680000206804002068000020FD
:10036000704770477047754600F02CF8AE460500A0
:100370006946534620F00700854618B020B5FFF7C0
:10038000E4FFBDE820404FF000064FF000074FF0BB
:1003900000084FF0000BAC46ACE8C009ACE8C0095F
:1003A000ACE8C009ACE8C00921F007018D467047F0
:1003B00010B50446AFF300802046BDE81040FFF7BB
:1003C000B0BF00000048704700000020014918201D
:1003D000ABBEFEE7260002007047000081B048F285
:1003E0002801C4F2030108200860FFE748F2040076
:1003F000C4F2030000680007002801D4FFE7F5E716
:1004000048F2A800C4F2030000686FF31F30ADF893
:10041000020048F20C01C4F2030108200860BDF894
:10042000020001B0704700004EF20861C4F20F01F3
:10043000086840F008000860FFE74EF20860C4F268
:100440000F00006800F00800082801D0FFE7F4E77B
:1004500047F20041C4F20001086820F00100086082
:1004600047F22041C4F20001086840F00100086032
:1004700047F21C51C4F20001086820F00100086036
:1004800047F22851C4F20001086840F001000860FA
:100490004EF20011C4F20F01086840F48030086089
:1004A000FFE74EF20010C4F20F00006800F4803045
:1004B000B0F5803F01D0FFE7F3E74EF20011C4F240
:1004C0000F01086820F44070086048F22001C4F26F
:1004D000030140F22310086048F20001C4F2030156
:1004E000086820F00800086048F21402C4F2030211
:1004F000106820F47040106048F2A002C4F20302B9
:100500001068072363F30300106048F2A402C4F2EA
:10051000030206201060086840F008000860704779
:100520004EF20810C4F20F0000688007002814D4AF
:10053000FFE74EF20811C4F20F01086840F0020014
:100540000860FFE74EF20810C4F20F000068800751
:10055000002801D4FFE7F5E7FFE745F22851C4F290
:100560000001086820F0CC00086045F22041C4F288
:100570000001086820F0CC00086045F22C51C4F25C
:10058000000108683FFA80F0086045F20041C4F2BB
:100590000001086840F0CC00086045F21C51C4F22C
:1005A0000001086840F0CC000860704781B04EF24E
:1005B0007001C4F20F010091086840F0004008602B
:1005C000086840F4006008604EF26002C4F20F0256
:1005D000106820F4F8601060106800F5A8601060E2
:1005E000086820F07000086008680860086820F457
:1005F00000500860086840F08040086008681822D1
:1006000062F39C500860FFE74EF25000C4F20F0006
:1006100000684006002801D4FFE7F5E74EF27001BC
:10062000C4F20F01086820F40060086001B0704750
:1006300080B584B0FFF7D2FEADF80E00BDF80E0015
:1006400040F26001C2F200010291098840F26202A8
:10065000C2F200020192128800F098F8019A029901
:10066000ADF80C0008881080BDF80E000880BDF8B9
:100670000C0004B080BD000081B0009041F20C017C
:10068000C4F20301002008600098013841F22802FA
:10069000C4F20302106001200860FFE741F2480045
:1006A000C4F20300006808B1FFE7F7E701B0704744
:1006B00080B584B000208DF80F00FFE79DF80F0093
:1006C00009280BDCFFE7FFF7B3FFADF80C00FFE7ED
:1006D0009DF80F0001308DF80F00EFE7FFE7FFF7FF
:1006E000A7FFADF80C00FFE7BDF80C1001200029B2
:1006F000029005DCFFE7BDF80C0000200290FFE748
:100700000298C0070028EAD1FFE7FFE7BDF80C1008
:100710000020B1F1FF3F019008DCFFE7BDF80C10AD
:1007200000200029C8BF01200190FFE70198C00701
:10073000D0B1FFE7FFF77CFFADF80C00BDF80C006F
:10074000012803DBFFE700F071F80CE0BDF80C00B6
:10075000B0F1FF3F03DCFFE700F07CF802E000F0BF
:100760008DF8FFE7FFE7D1E704B080BD80B582B028
:1007700000200190FFF71AFFFFF756FEFFF7D0FEAB
:10078000FFE700F07BF8FFF793FFFAE782B0ADF8E0
:100790000600ADF80410ADF80220BDF80600BDF863
:1007A000041088421FDDFFE7BDF80400BDF8021009
:1007B000884205DDFFE7BDF80400ADF8000011E058
:1007C000BDF80600BDF80210884205DDFFE7BDF860
:1007D0000200ADF8000004E0BDF80600ADF800002E
:1007E000FFE7FFE71EE0BDF80200BDF804108842F5
:1007F00005DDFFE7BDF80400ADF8000011E0BDF82D
:100800000600BDF80210884205DDFFE7BDF80600CE
:10081000ADF8000004E0BDF80200ADF80000FFE70D
:10082000FFE7FFE7BDF8000002B0704780B545F272
:100830003031C4F20001CC20086048F20801C4F253
:100840000201086840F00C0008604FF47A40FFF79E
:1008500013FF80BD80B545F23031C4F2000188201D
:10086000086048F20801C4F20201086840F00C0078
:1008700008604FF47A40FFF7FFFE80BD80B545F277
:100880003031C4F200010020086048F20801C4F2CF
:100890000201086820F00C0008604FF47A40FFF76E
:1008A000EBFE80BDB40800000000002068040000DA
:0408B000EC02000056
:040000050000026D88
:00000001FF
