:020000040000FA
:10000000680400206D02000071020000730200000D
:100010007502000077020000790200000000000075
:100020000000000000000000000000007B02000053
:100030007D020000000000007F020000810200003D
:10004000830200008302000083020000830200009C
:10005000830200008302000083020000830200008C
:10006000830200008302000083020000830200007C
:10007000830200008302000083020000830200006C
:10008000830200008302000083020000830200005C
:10009000830200008302000083020000830200004C
:1000A000830200008302000083020000830200003C
:1000B0008302000083020000690400008302000044
:1000C000830200008302000083020000830200001C
:1000D000830200008302000083020000830200000C
:1000E00083020000830200008302000083020000FC
:1000F00083020000830200008302000083020000EC
:1001000083020000830200008302000083020000DB
:1001100083020000830200008302000083020000CB
:1001200083020000830200008302000083020000BB
:1001300083020000830200008302000083020000AB
:1001400000000000000000000000000000000000AF
:10015000830200008302000083020000830200008B
:10016000000000000000000000000000000000008F
:10017000000000000000000000000000000000007F
:10018000000000000000000000000000000000006F
:10019000000000000000000000000000000000005F
:1001A000000000000000000000000000000000004F
:1001B000830200008302000083020000830200002B
:1001C000830200008302000083020000830200001B
:1001D000830200008302000083020000830200000B
:1001E00083020000830200008302000083020000FB
:1001F00083020000830200008302000083020000EB
:10020000830200008302000083020000000000005F
:1002100083020000830200008302000083020000CA
:1002200083020000830200008302000083020000BA
:1002300083020000830200008302000083020000AA
:10024000830200008302000083020000830200009A
:10025000830200008302000083020000830200008A
:1002600083020000830200008302000000F00AB84D
:10027000FEE7FEE7FEE7FEE7FEE7FEE7FEE7FEE756
:10028000FEE7FEE700F002F800F042F814A696E858
:10029000000CB244B344DA4501D100F039F8BAE8B1
:1002A0000F000FA696E83000A5EB040504EB060747
:1002B000AAEB0704A7F101074FEA15154FEA34141A
:1002C000A4F10104AC4201D300F022F813F0010FB5
:1002D00018BFFB1A43F0010300F001F8DBE71847F1
:1002E000AC060000BC06000070470000002300249C
:1002F00000250026103A28BF78C1FBD8520728BF36
:1003000030C148BF0B6070471FB51FBD10B510BD91
:1003100000F029F81146FFF7F7FF00F033FA00F07C
:1003200047F803B4FFF7F2FF03BC00F04FF80000FA
:1003300072B6704762B67047EFF3108072B67047BE
:1003400080F31088704730BF704702480249014A65
:10035000024B7047680000206804002068000020FD
:10036000704770477047754600F02CF8AE460500A0
:100370006946534620F00700854618B020B5FFF7C0
:10038000E4FFBDE820404FF000064FF000074FF0BB
:1003900000084FF0000BAC46ACE8C009ACE8C0095F
:1003A000ACE8C009ACE8C00921F007018D467047F0
:1003B00010B50446AFF300802046BDE81040FFF7BB
:1003C000B0BF00000048704700000020014918201D
:1003D000ABBEFEE726000200704700004EF2081098
:1003E000C4F20F0000688007002814D4FFE74EF223
:1003F0000811C4F20F01086840F002000860FFE72E
:100400004EF20810C4F20F0000688007002801D4E3
:10041000FFE7F5E7FFE745F22851C4F2000108685D
:1004200020F0CC00086045F22041C4F200010868C9
:1004300020F0CC00086045F22C51C4F2000108689D
:100440003FFA80F0086045F20041C4F200010868FC
:1004500040F0CC00086045F21C51C4F2000108686D
:1004600040F0CC000860704781B000200090FFE7AA
:10047000009847F2FF01C0F20201884205D8FFE769
:10048000FFE7009801300090F2E745F21440C4F213
:1004900002000068C00600280FD5FFE745F21C41A6
:1004A000C4F20201086840F01000086040F26001E8
:1004B000C2F2000101200860FFE701B070470000B0
:1004C00082B0019000910198013848F29801C4F27D
:1004D000020108600098013848F29C01C4F2020150
:1004E000086002B0704700004EF20810C4F20F001E
:1004F00000688007002814D4FFE74EF20811C4F208
:100500000F01086840F002000860FFE74EF2081093
:10051000C4F20F0000688007002801D4FFE7F5E768
:10052000FFE745F22041C4F20001086840F03000C6
:10053000086045F22C51C4F20001086820F47F00E5
:100540000860086840F48800086045F21C51C4F255
:100550000001086840F0300008604EF24061C4F2CB
:100560000F01086840F0010008604EF26001C4F21B
:100570000F01086840F480100860086820F46020CB
:10058000086048F28001C4F20201086820F002000D
:10059000086048F2A002C4F20202106840F0C800ED
:1005A000106048F2A402C4F20202106840F6084348
:1005B0001843106048F29002C4F2020243F67F60D2
:1005C000106048F29802C4F202020020106048F263
:1005D0009C02C4F202021060086840F0010008604A
:1005E00048F20801C4F20201086840F00C000860FB
:1005F0007047000081B04EF20811C4F20F01086884
:1006000040F020000860FFE74EF20810C4F20F002F
:1006100000688006002801D4FFE7F5E745F2245181
:10062000C4F20201086840F01000086045F2285149
:10063000C4F20201086820F01000086045F22C5155
:10064000C4F20201086820F47020086045F21051DD
:10065000C4F20201086840F01000086045F2004151
:10066000C4F20201086820F01000086045F2204141
:10067000C4F20201086820F01000086045F21C5125
:10068000C4F20201086840F01000086045F204411D
:10069000C4F20201086820F01000086045F2084129
:1006A000C4F20201086820F01000086045F20C4115
:1006B000C4F20201086840F01000086045F21C41D5
:1006C000C4F20201086840F01000086045F21041D1
:1006D000C4F20201086840F0100008604EF20011F8
:1006E000CEF200014FF08040086001B0704700007A
:1006F00081B0009041F20C01C4F2030100200860B7
:100700000098013841F22802C4F20302106001206F
:100710000860FFE741F24800C4F20300006808B136
:10072000FFE7F7E701B070474EF20461C4F20F0132
:10073000086840F002000860FFE74EF20460C4F26F
:100740000F00006800F00200022801D0FFE7F4E784
:1007500041F20C01C4F203010020086041F20001E3
:10076000C4F203010420086041F20401C4F2030151
:100770000220086041F23801C4F20301F920086048
:100780007047000080B588B000200790FFF7CCFFCD
:10079000FFF730FFFFF722FEFFF7A6FE4FF4FA51F6
:1007A0000846FFF78DFEFFE740F26001C2F200014C
:1007B00000200860FFE740F26000C2F2000000681D
:1007C00008B9FFE7F7E745F23031C4F200010391C1
:1007D00088200190086048F20801C4F202010591E6
:1007E000086840F00C0008604FF47A400690FFF76C
:1007F0007FFF039B059A06980021049119601168F8
:1008000021F00C011160FFF773FF039B059A069816
:10081000CC2102911960116841F00C011160FFF7C1
:1008200067FF039B0499059A06981960116821F0E7
:100830000C011160FFF75CFF4FF448610846FFF7B9
:100840003FFE0199039B059A06981960116841F0D3
:1008500008011160116821F004011160FFF748FFE1
:10086000039B0499059A06981960116821F00C0100
:100870001160FFF73DFF0199039B059A06981960E7
:10088000116821F008011160116841F00401116044
:10089000FFF72EFF039B0499059A069819601168CB
:1008A00021F00C011160FFF723FF0299039B059AC9
:1008B00006981960116821F008011160116841F073
:1008C00004011160FFF714FF039B0499059A069831
:1008D0001960116821F00C011160FFF709FF0299FE
:1008E000039B059A06981960116841F00801116090
:1008F000116821F004011160FFF7FAFE039B0499CF
:10090000059A06981960116821F00C011160FFF733
:10091000EFFE4FF4FA510846FFF7D2FD039B059A0C
:100920000698C8211960116841F00C011160FFF7A9
:10093000DFFE039B0499059A06981960116821F05F
:100940000C011160FFF7D4FE039B059A06988C21D9
:100950001960116841F00C011160FFF7C9FE039B9B
:100960000499059A06981960116821F00C0111602C
:10097000FFF7BEFE039B0499059A0698196011685B
:1009800021F00C011160FFF7B3FE0DE79C09000098
:0C0990000000002068040000EC020000E1
:040000050000026D88
:00000001FF
